:100000000C9462000C948A000C948A000C948A0070
:100010000C948A000C948A000C948A000C948A0038
:100020000C948A000C948A000C948A000C948A0028
:100030000C948A000C948A000C948A000C948A0018
:100040000C9458030C948A000C9426030C9400031F
:100050000C948A000C948A000C948A000C948A00F8
:100060000C948A000C948A000000000024002700F1
:100070002A0000000000250028002B0000000000DE
:1000800023002600290004040404040404040202DA
:100090000202020203030303030301020408102007
:1000A0004080010204081020010204081020000012
:1000B0000008000201000003040700000000000027
:1000C0000000A20311241FBECFEFD8E0DEBFCDBFDA
:1000D00011E0A0E0B1E0E4E9FCE002C005900D927F
:1000E000A034B107D9F722E0A0E4B1E001C01D922D
:1000F000A735B207E1F710E0C2E6D0E004C02197CF
:10010000FE010E944206C136D107C9F70E942F04A2
:100110000C9448060C94000096E0899FD0011124AD
:10012000A851BE4F90967C936E935F9791E0919605
:100130009C939197E0915502F09156029091540250
:10014000992339F0309751F0811108C08091040251
:100150000994309719F05C968C91FACF0895CF925C
:10016000DF92EF92FF920F931F9396E0899FF00129
:100170001124E851FE4F11A2278D30A12130310505
:1001800051F178F02230310509F451C023303105A6
:1001900009F452C01F910F91FF90EF90DF90CF9024
:1001A00008956623B9F361E070E00E948C002FB7D8
:1001B000F8948091470190914801A0914901B09134
:1001C0004A012FBF8093400290934102A0934202C4
:1001D000B0934302DFCF9FB7F894C0904701D0900F
:1001E0004801E0904901F0904A019FBF0091400210
:1001F000109141022091420230914302C01AD10A6B
:10020000E20AF30A009152021091530230E020E01A
:100210000C151D052E053F0550F462E070E01F919E
:100220000F91FF90EF90DF90CF900C948C006111B4
:10023000B1CF63E070E0F3CF70E060E0F0CFAF9259
:10024000BF92CF92DF92EF92FF920F931F93CF93C3
:10025000DF936C017B018B01040F151FEB015E0125
:10026000AE18BF08C017D10759F06991D601ED91BA
:10027000FC910190F081E02DC6010995892B79F759
:10028000C501DF91CF911F910F91FF90EF90DF900B
:10029000CF90BF90AF900895FC01538D448D252FD2
:1002A00030E0842F90E0821B930B541710F0CF9610
:1002B000089501970895FC01918D828D981761F042
:1002C000A28DAE0FBF2FB11D5D968C91928D9F5F59
:1002D0009F73928F90E008958FEF9FEF0895FC0138
:1002E000918D828D981731F0828DE80FF11D858DEB
:1002F00090E008958FEF9FEF0895FC01918D228D7E
:10030000892F90E0805C9F4F821B91098F73992702
:1003100008958BE491E00E947D0121E0892B09F48E
:1003200020E0822F089580E090E0892B29F00E9440
:10033000890181110C9400000895FC01A48DA80F7F
:10034000B92FB11DA35ABF4F2C91848D90E0019617
:100350008F739927848FA689B7892C93A089B18937
:100360008C91837080648C93938D848D981306C0D8
:100370000288F389E02D80818F7D80830895EF923C
:10038000FF920F931F93CF93DF93EC0181E0888F4F
:100390009B8D8C8D98131AC0E889F989808185FF1F
:1003A00015C09FB7F894EE89FF896083E889F989C1
:1003B00080818370806480839FBF81E090E0DF91C3
:1003C000CF911F910F91FF90EF900895F62E0B8D16
:1003D00010E00F5F1F4F0F731127E02E8C8D8E11D1
:1003E0000CC00FB607FCFACFE889F989808185FF38
:1003F000F5CFCE010E949D01F1CFEB8DEC0FFD2FCB
:10040000F11DE35AFF4FF0829FB7F8940B8FEA89F2
:10041000FB8980818062CFCFCF93DF93EC01888D01
:100420008823B9F0AA89BB89E889F9898C9185FD6F
:1004300003C0808186FD0DC00FB607FCF7CF8C91FD
:1004400085FFF2CF808185FFEDCFCE010E949D0117
:10045000E9CFDF91CF910895833081F028F4813086
:1004600099F08230A9F008958730A9F08830C9F05A
:100470008430B1F4809180008F7D03C08091800032
:100480008F7780938000089584B58F7784BD089519
:1004900084B58F7DFBCF8091B0008F778093B000C3
:1004A00008958091B0008F7DF9CFCF93DF93282FEF
:1004B00030E0F901E255FF4F8491F901E656FF4F14
:1004C000D491F901EA57FF4FC491CC23A1F08111D7
:1004D0000E942C02EC2FF0E0EE0FFF1FE458FF4FBC
:1004E000A591B491EC91ED2381E090E009F480E0D6
:1004F000DF91CF91089580E090E0FACF862F0C94A1
:1005000055021F93CF93DF93282F30E0F901E25576
:10051000FF4F8491F901E656FF4FD491F901EA5754
:10052000FF4FC491CC23A9F0162F81110E942C02F9
:10053000EC2FF0E0EE0FFF1FEE58FF4FA591B491A6
:100540008FB7F894EC91111108C0D095DE23DC939D
:100550008FBFDF91CF911F910895DE2BF8CF862FAB
:10056000642F0C948102CF93DF9390E0FC01E65658
:10057000FF4F24918A579F4FFC0184918823C9F033
:1005800090E0880F991FFC01E859FF4FA591B491A5
:10059000FC01EE58FF4FC591D49161110DC09FB77A
:1005A000F8948C91209582238C938881282328832A
:1005B0009FBFDF91CF910895623051F49FB7F894B7
:1005C0003C91822F809583238C93E8812E2BEFCF53
:1005D0008FB7F894EC912E2B2C938FBFEACF862FF8
:1005E000642F0C94B302FC0101900020E9F73197CD
:1005F000AF01481B590BBC018BE491E00C941F0127
:100600001F920F920FB60F9211242F933F934F9387
:100610005F936F937F938F939F93AF93BF93EF936A
:10062000FF938BE491E00E949D01FF91EF91BF91B8
:10063000AF919F918F917F916F915F914F913F917A
:100640002F910F900FBE0F901F9018951F920F9231
:100650000FB60F9211242F938F939F93EF93FF93D5
:10066000E0915B01F0915C018081E0916101F0918A
:10067000620182FD1BC09081809164018F5F8F7346
:1006800020916501821741F0E0916401F0E0E55BA3
:10069000FE4F958F80936401FF91EF919F918F9111
:1006A0002F910F900FBE0F901F9018958081F4CF5F
:1006B0001F920F920FB60F9211242F933F938F9397
:1006C0009F93AF93BF938091470190914801A09170
:1006D0004901B0914A013091440123E0230F2D37A5
:1006E00058F50196A11DB11D209344018093470147
:1006F00090934801A0934901B0934A018091400131
:1007000090914101A0914201B09143010196A11D38
:10071000B11D8093400190934101A0934201B09399
:100720004301BF91AF919F918F913F912F910F9076
:100730000FBE0F901F90189526E8230F0296A11D5B
:10074000B11DD2CF10924E0110924D0188EE93E070
:10075000A0E0B0E080934F0190935001A09351012D
:10076000B09352018CE191E090934C0180934B0146
:1007700085EC90E0909358018093570184EC90E0D1
:1007800090935A018093590180EC90E090935C0122
:1007900080935B0181EC90E090935E0180935D011A
:1007A00082EC90E09093600180935F0186EC90E092
:1007B000909362018093610110926401109265012F
:1007C00010926601109267011092EA011092EE01F8
:1007D0001092ED011092EF018EE291E09093E90109
:1007E0008093E801E4E0F2E0108214821382158223
:1007F000369682E0E034F807B9F784E091E0909310
:100800004B0280934A0280E091E090934D028093E6
:100810004C0284E080934E0280934F0288E091E086
:1008200090934902809348028AE090E090935102AD
:100830008093500284EF91E0909353028093520290
:1008400010925602109255021092440210924502E4
:100850001092460210924702109254020895789422
:1008600084B5826084BD84B5816084BD85B58260B5
:1008700085BD85B5816085BD80916E008160809366
:100880006E001092810080918100826080938100CF
:1008900080918100816080938100809180008160DF
:1008A000809380008091B10084608093B10080913A
:1008B000B00081608093B00080917A008460809362
:1008C0007A0080917A00826080937A0080917A0029
:1008D000816080937A0080917A00806880937A00AA
:1008E0001092C100E0915B01F0915C0182E0808395
:1008F000E0915701F09158011082E0915901F09177
:100900005A018FEC808310926301E0915F01F091B6
:10091000600186E08083E0915D01F0915E0180815D
:1009200080618083E0915D01F0915E01808188604B
:100930008083E0915D01F0915E0180818068808319
:10094000E0915D01F0915E0180818F7D8083812C3B
:10095000912C5401839444E2442E42E0542EEE2420
:10096000E394F12C21E0209354028FB7F894409146
:100970004701509148016091490170914A018FBF30
:100980008091440290914502A0914602B0914702A5
:10099000481B590B6A0B7B0B8091500290915102BE
:1009A000B0E0A0E084179507A607B70708F01EC1BE
:1009B000C0E080914E02C81760F4E0914A02F091C5
:1009C0004B02EC0FF11D62E080810E94B302CF5F09
:1009D000F0CF312C80914F02381608F062C0C32D41
:1009E000D0E0E0914C02F0914D02EC0FFD1F61E070
:1009F00080810E94B302E0914C02F0914D02EC0F15
:100A0000FD1F60E080810E94810295018401032C1A
:100A100004C0000F111F221F331F0A94D2F7680170
:100A200000951095212C80914E02281620F5622CFD
:100A3000712CE0914A02F0914B02E60DF71D808186
:100A40000E945502F3013496892B61F4EE0FFF1FCB
:100A5000E851FE4F808191818C299D29918380836B
:100A60002394E1CFEE0FFF1FE851FE4F808191816B
:100A700080239123F3CFE0914C02F0914D02EC0FD3
:100A8000FD1F61E080810E94810280914C02909163
:100A90004D02C80FD91F60E088810E94B3023394D1
:100AA00099CFC8EED1E08E01F801878D90A1892BF6
:100AB00031F4148E2FEF3FEF368F258F11A20A5F8E
:100AC0001F4F4016510681F7D12C80914E02D81647
:100AD00008F053C0C12C6D2C712C660C771CC3011F
:100AE00080519E4F3C0120914F02C21608F043C036
:100AF000F301608171810C2C02C0769567950A9490
:100B0000E2F7D29E900111242C0D311DE8EEF1E0A8
:100B100080E0458D568D2417350709F4B1C08F5FED
:100B200036968A30B1F760FF24C0E8EEF1E090E03D
:100B300080E0448D411118C0E0914802F0914902D3
:100B4000E20FF31F408156E0589FF001599FF00DCE
:100B50001124E851FE4F448F368F258F10A2178E37
:100B600061E00E94AF0005C0019636968A3091057B
:100B700001F7C394B8CFD394A8CF80E099A1911185
:100B8000892F2696C017D107C9F79FB7F8944091CF
:100B90004701509148016091490170914A019FBFFE
:100BA000409344025093450260934602709347027B
:100BB0008823E1F0809109028823C1F08091070227
:100BC000909108028130910589F4C0910402C1110D
:100BD00010C080E090E0892B09F4C4CE0E94890106
:100BE000882309F4BFCE0E940000BCCE10925402AC
:100BF000F0CFC133C1F4909346018093450184E363
:100C000091E00E94F3028091450190914601892B69
:100C100029F46C2F8BE491E00E94BF0110924601F1
:100C200010924501D6CFC23339F490934601809398
:100C3000450186E391E0E5CFC33339F49093460153
:100C40008093450188E391E0DCCFC43339F490937D
:100C50004601809345018AE391E0D3CFC53339F44F
:100C6000F0924601E09245018CE391E0CACFC63391
:100C700051F6F0924601E09245018EE391E0C1CF3A
:100C800061706FCFEE0FFF1F0590F491E02D099476
:040C9000F894FFCF06
:100C9400090807060D0C0B0A3738392F3435367816
:100CA4003132332D2A30232B00000000BF011F01F5
:100CB4004C010C027D015B016F0100000000EF029A
:100CC400AF027E02310032003300340035003600BA
:00000001FF
